{
  "_format": "hh-sol-artifact-1",
  "contractName": "BerzerkArt",
  "sourceName": "contracts/BerzerkArt.sol",
  "abi": [
    {
      "inputs": [
        {
          "internalType": "string",
          "name": "_name",
          "type": "string"
        },
        {
          "internalType": "string",
          "name": "_symbol",
          "type": "string"
        },
        {
          "internalType": "string",
          "name": "_initBaseURI",
          "type": "string"
        },
        {
          "internalType": "string",
          "name": "_initplaceHolderUri",
          "type": "string"
        }
      ],
      "stateMutability": "nonpayable",
      "type": "constructor"
    },
    {
      "anonymous": false,
      "inputs": [
        {
          "indexed": true,
          "internalType": "address",
          "name": "owner",
          "type": "address"
        },
        {
          "indexed": true,
          "internalType": "address",
          "name": "approved",
          "type": "address"
        },
        {
          "indexed": true,
          "internalType": "uint256",
          "name": "tokenId",
          "type": "uint256"
        }
      ],
      "name": "Approval",
      "type": "event"
    },
    {
      "anonymous": false,
      "inputs": [
        {
          "indexed": true,
          "internalType": "address",
          "name": "owner",
          "type": "address"
        },
        {
          "indexed": true,
          "internalType": "address",
          "name": "operator",
          "type": "address"
        },
        {
          "indexed": false,
          "internalType": "bool",
          "name": "approved",
          "type": "bool"
        }
      ],
      "name": "ApprovalForAll",
      "type": "event"
    },
    {
      "anonymous": false,
      "inputs": [
        {
          "indexed": true,
          "internalType": "address",
          "name": "previousOwner",
          "type": "address"
        },
        {
          "indexed": true,
          "internalType": "address",
          "name": "newOwner",
          "type": "address"
        }
      ],
      "name": "OwnershipTransferred",
      "type": "event"
    },
    {
      "anonymous": false,
      "inputs": [
        {
          "indexed": true,
          "internalType": "address",
          "name": "from",
          "type": "address"
        },
        {
          "indexed": true,
          "internalType": "address",
          "name": "to",
          "type": "address"
        },
        {
          "indexed": true,
          "internalType": "uint256",
          "name": "tokenId",
          "type": "uint256"
        }
      ],
      "name": "Transfer",
      "type": "event"
    },
    {
      "inputs": [
        {
          "internalType": "address",
          "name": "to",
          "type": "address"
        },
        {
          "internalType": "uint256",
          "name": "tokenId",
          "type": "uint256"
        }
      ],
      "name": "approve",
      "outputs": [],
      "stateMutability": "nonpayable",
      "type": "function"
    },
    {
      "inputs": [
        {
          "internalType": "address",
          "name": "owner",
          "type": "address"
        }
      ],
      "name": "balanceOf",
      "outputs": [
        {
          "internalType": "uint256",
          "name": "",
          "type": "uint256"
        }
      ],
      "stateMutability": "view",
      "type": "function"
    },
    {
      "inputs": [],
      "name": "baseExtension",
      "outputs": [
        {
          "internalType": "string",
          "name": "",
          "type": "string"
        }
      ],
      "stateMutability": "view",
      "type": "function"
    },
    {
      "inputs": [],
      "name": "cost",
      "outputs": [
        {
          "internalType": "uint256",
          "name": "",
          "type": "uint256"
        }
      ],
      "stateMutability": "view",
      "type": "function"
    },
    {
      "inputs": [
        {
          "internalType": "uint256",
          "name": "tokenId",
          "type": "uint256"
        }
      ],
      "name": "getApproved",
      "outputs": [
        {
          "internalType": "address",
          "name": "",
          "type": "address"
        }
      ],
      "stateMutability": "view",
      "type": "function"
    },
    {
      "inputs": [
        {
          "internalType": "address",
          "name": "owner",
          "type": "address"
        },
        {
          "internalType": "address",
          "name": "operator",
          "type": "address"
        }
      ],
      "name": "isApprovedForAll",
      "outputs": [
        {
          "internalType": "bool",
          "name": "",
          "type": "bool"
        }
      ],
      "stateMutability": "view",
      "type": "function"
    },
    {
      "inputs": [],
      "name": "maxMintAmount",
      "outputs": [
        {
          "internalType": "uint256",
          "name": "",
          "type": "uint256"
        }
      ],
      "stateMutability": "view",
      "type": "function"
    },
    {
      "inputs": [],
      "name": "maxSupply",
      "outputs": [
        {
          "internalType": "uint256",
          "name": "",
          "type": "uint256"
        }
      ],
      "stateMutability": "view",
      "type": "function"
    },
    {
      "inputs": [
        {
          "internalType": "uint256",
          "name": "_mintAmount",
          "type": "uint256"
        }
      ],
      "name": "mint",
      "outputs": [],
      "stateMutability": "payable",
      "type": "function"
    },
    {
      "inputs": [],
      "name": "name",
      "outputs": [
        {
          "internalType": "string",
          "name": "",
          "type": "string"
        }
      ],
      "stateMutability": "view",
      "type": "function"
    },
    {
      "inputs": [],
      "name": "owner",
      "outputs": [
        {
          "internalType": "address",
          "name": "",
          "type": "address"
        }
      ],
      "stateMutability": "view",
      "type": "function"
    },
    {
      "inputs": [
        {
          "internalType": "uint256",
          "name": "tokenId",
          "type": "uint256"
        }
      ],
      "name": "ownerOf",
      "outputs": [
        {
          "internalType": "address",
          "name": "",
          "type": "address"
        }
      ],
      "stateMutability": "view",
      "type": "function"
    },
    {
      "inputs": [
        {
          "internalType": "bool",
          "name": "_state",
          "type": "bool"
        }
      ],
      "name": "pause",
      "outputs": [],
      "stateMutability": "nonpayable",
      "type": "function"
    },
    {
      "inputs": [],
      "name": "paused",
      "outputs": [
        {
          "internalType": "bool",
          "name": "",
          "type": "bool"
        }
      ],
      "stateMutability": "view",
      "type": "function"
    },
    {
      "inputs": [],
      "name": "placeHolderUri",
      "outputs": [
        {
          "internalType": "string",
          "name": "",
          "type": "string"
        }
      ],
      "stateMutability": "view",
      "type": "function"
    },
    {
      "inputs": [],
      "name": "renounceOwnership",
      "outputs": [],
      "stateMutability": "nonpayable",
      "type": "function"
    },
    {
      "inputs": [],
      "name": "reveal",
      "outputs": [],
      "stateMutability": "nonpayable",
      "type": "function"
    },
    {
      "inputs": [],
      "name": "revealed",
      "outputs": [
        {
          "internalType": "bool",
          "name": "",
          "type": "bool"
        }
      ],
      "stateMutability": "view",
      "type": "function"
    },
    {
      "inputs": [
        {
          "internalType": "address",
          "name": "from",
          "type": "address"
        },
        {
          "internalType": "address",
          "name": "to",
          "type": "address"
        },
        {
          "internalType": "uint256",
          "name": "tokenId",
          "type": "uint256"
        }
      ],
      "name": "safeTransferFrom",
      "outputs": [],
      "stateMutability": "nonpayable",
      "type": "function"
    },
    {
      "inputs": [
        {
          "internalType": "address",
          "name": "from",
          "type": "address"
        },
        {
          "internalType": "address",
          "name": "to",
          "type": "address"
        },
        {
          "internalType": "uint256",
          "name": "tokenId",
          "type": "uint256"
        },
        {
          "internalType": "bytes",
          "name": "_data",
          "type": "bytes"
        }
      ],
      "name": "safeTransferFrom",
      "outputs": [],
      "stateMutability": "nonpayable",
      "type": "function"
    },
    {
      "inputs": [
        {
          "internalType": "address",
          "name": "operator",
          "type": "address"
        },
        {
          "internalType": "bool",
          "name": "approved",
          "type": "bool"
        }
      ],
      "name": "setApprovalForAll",
      "outputs": [],
      "stateMutability": "nonpayable",
      "type": "function"
    },
    {
      "inputs": [
        {
          "internalType": "string",
          "name": "_newBaseExtension",
          "type": "string"
        }
      ],
      "name": "setBaseExtension",
      "outputs": [],
      "stateMutability": "nonpayable",
      "type": "function"
    },
    {
      "inputs": [
        {
          "internalType": "string",
          "name": "_newBaseURI",
          "type": "string"
        }
      ],
      "name": "setBaseURI",
      "outputs": [],
      "stateMutability": "nonpayable",
      "type": "function"
    },
    {
      "inputs": [
        {
          "internalType": "uint256",
          "name": "_newCost",
          "type": "uint256"
        }
      ],
      "name": "setCost",
      "outputs": [],
      "stateMutability": "nonpayable",
      "type": "function"
    },
    {
      "inputs": [
        {
          "internalType": "string",
          "name": "_placeHolderUri",
          "type": "string"
        }
      ],
      "name": "setPlaceHolderUri",
      "outputs": [],
      "stateMutability": "nonpayable",
      "type": "function"
    },
    {
      "inputs": [
        {
          "internalType": "uint256",
          "name": "_newmaxMintAmount",
          "type": "uint256"
        }
      ],
      "name": "setmaxMintAmount",
      "outputs": [],
      "stateMutability": "nonpayable",
      "type": "function"
    },
    {
      "inputs": [
        {
          "internalType": "bytes4",
          "name": "interfaceId",
          "type": "bytes4"
        }
      ],
      "name": "supportsInterface",
      "outputs": [
        {
          "internalType": "bool",
          "name": "",
          "type": "bool"
        }
      ],
      "stateMutability": "view",
      "type": "function"
    },
    {
      "inputs": [],
      "name": "symbol",
      "outputs": [
        {
          "internalType": "string",
          "name": "",
          "type": "string"
        }
      ],
      "stateMutability": "view",
      "type": "function"
    },
    {
      "inputs": [
        {
          "internalType": "uint256",
          "name": "index",
          "type": "uint256"
        }
      ],
      "name": "tokenByIndex",
      "outputs": [
        {
          "internalType": "uint256",
          "name": "",
          "type": "uint256"
        }
      ],
      "stateMutability": "view",
      "type": "function"
    },
    {
      "inputs": [
        {
          "internalType": "address",
          "name": "owner",
          "type": "address"
        },
        {
          "internalType": "uint256",
          "name": "index",
          "type": "uint256"
        }
      ],
      "name": "tokenOfOwnerByIndex",
      "outputs": [
        {
          "internalType": "uint256",
          "name": "",
          "type": "uint256"
        }
      ],
      "stateMutability": "view",
      "type": "function"
    },
    {
      "inputs": [
        {
          "internalType": "uint256",
          "name": "tokenId",
          "type": "uint256"
        }
      ],
      "name": "tokenURI",
      "outputs": [
        {
          "internalType": "string",
          "name": "",
          "type": "string"
        }
      ],
      "stateMutability": "view",
      "type": "function"
    },
    {
      "inputs": [],
      "name": "totalSupply",
      "outputs": [
        {
          "internalType": "uint256",
          "name": "",
          "type": "uint256"
        }
      ],
      "stateMutability": "view",
      "type": "function"
    },
    {
      "inputs": [
        {
          "internalType": "address",
          "name": "from",
          "type": "address"
        },
        {
          "internalType": "address",
          "name": "to",
          "type": "address"
        },
        {
          "internalType": "uint256",
          "name": "tokenId",
          "type": "uint256"
        }
      ],
      "name": "transferFrom",
      "outputs": [],
      "stateMutability": "nonpayable",
      "type": "function"
    },
    {
      "inputs": [
        {
          "internalType": "address",
          "name": "newOwner",
          "type": "address"
        }
      ],
      "name": "transferOwnership",
      "outputs": [],
      "stateMutability": "nonpayable",
      "type": "function"
    },
    {
      "inputs": [
        {
          "internalType": "address",
          "name": "_owner",
          "type": "address"
        }
      ],
      "name": "walletOfOwner",
      "outputs": [
        {
          "internalType": "uint256[]",
          "name": "",
          "type": "uint256[]"
        }
      ],
      "stateMutability": "view",
      "type": "function"
    },
    {
      "inputs": [],
      "name": "withdraw",
      "outputs": [],
      "stateMutability": "payable",
      "type": "function"
    }
  ],
  "bytecode": "0x60806040526040518060400160405280600581526020017f2e6a736f6e000000000000000000000000000000000000000000000000000000815250600c908051906020019062000051929190620003a0565b5066b1a2bc2ec50000600d55600a600e556001600f556000601060006101000a81548160ff0219169083151502179055506000601060016101000a81548160ff021916908315150217905550348015620000aa57600080fd5b5060405162004aa438038062004aa48339818101604052810190620000d09190620004c2565b83838160009080519060200190620000ea929190620003a0565b50806001908051906020019062000103929190620003a0565b505050620001266200011a6200015260201b60201c565b6200015a60201b60201c565b62000137826200022060201b60201c565b6200014881620002cb60201b60201c565b5050505062000738565b600033905090565b6000600a60009054906101000a900473ffffffffffffffffffffffffffffffffffffffff16905081600a60006101000a81548173ffffffffffffffffffffffffffffffffffffffff021916908373ffffffffffffffffffffffffffffffffffffffff1602179055508173ffffffffffffffffffffffffffffffffffffffff168173ffffffffffffffffffffffffffffffffffffffff167f8be0079c531659141344cd1fd0a4f28419497f9722a3daafe3b4186f6b6457e060405160405180910390a35050565b620002306200015260201b60201c565b73ffffffffffffffffffffffffffffffffffffffff16620002566200037660201b60201c565b73ffffffffffffffffffffffffffffffffffffffff1614620002af576040517f08c379a0000000000000000000000000000000000000000000000000000000008152600401620002a690620005d4565b60405180910390fd5b80600b9080519060200190620002c7929190620003a0565b5050565b620002db6200015260201b60201c565b73ffffffffffffffffffffffffffffffffffffffff16620003016200037660201b60201c565b73ffffffffffffffffffffffffffffffffffffffff16146200035a576040517f08c379a00000000000000000000000000000000000000000000000000000000081526004016200035190620005d4565b60405180910390fd5b806011908051906020019062000372929190620003a0565b5050565b6000600a60009054906101000a900473ffffffffffffffffffffffffffffffffffffffff16905090565b828054620003ae90620006a4565b90600052602060002090601f016020900481019282620003d257600085556200041e565b82601f10620003ed57805160ff19168380011785556200041e565b828001600101855582156200041e579182015b828111156200041d57825182559160200191906001019062000400565b5b5090506200042d919062000431565b5090565b5b808211156200044c57600081600090555060010162000432565b5090565b60006200046762000461846200062a565b620005f6565b9050828152602081018484840111156200048057600080fd5b6200048d8482856200066e565b509392505050565b600082601f830112620004a757600080fd5b8151620004b984826020860162000450565b91505092915050565b60008060008060808587031215620004d957600080fd5b600085015167ffffffffffffffff811115620004f457600080fd5b620005028782880162000495565b945050602085015167ffffffffffffffff8111156200052057600080fd5b6200052e8782880162000495565b935050604085015167ffffffffffffffff8111156200054c57600080fd5b6200055a8782880162000495565b925050606085015167ffffffffffffffff8111156200057857600080fd5b620005868782880162000495565b91505092959194509250565b6000620005a16020836200065d565b91507f4f776e61626c653a2063616c6c6572206973206e6f7420746865206f776e65726000830152602082019050919050565b60006020820190508181036000830152620005ef8162000592565b9050919050565b6000604051905081810181811067ffffffffffffffff8211171562000620576200061f62000709565b5b8060405250919050565b600067ffffffffffffffff82111562000648576200064762000709565b5b601f19601f8301169050602081019050919050565b600082825260208201905092915050565b60005b838110156200068e57808201518184015260208101905062000671565b838111156200069e576000848401525b50505050565b60006002820490506001821680620006bd57607f821691505b60208210811415620006d457620006d3620006da565b5b50919050565b7f4e487b7100000000000000000000000000000000000000000000000000000000600052602260045260246000fd5b7f4e487b7100000000000000000000000000000000000000000000000000000000600052604160045260246000fd5b61435c80620007486000396000f3fe60806040526004361061020f5760003560e01c80636352211e11610118578063b0962c53116100a0578063c87b56dd1161006f578063c87b56dd1461075b578063d5abeb0114610798578063da3ef23f146107c3578063e985e9c5146107ec578063f2fde38b146108295761020f565b8063b0962c53146106b3578063b88d4fde146106dc578063c668286214610705578063c6cc0186146107305761020f565b80638da5cb5b116100e75780638da5cb5b1461060157806395d89b411461062c578063a0712d6814610657578063a22cb46514610673578063a475b5dd1461069c5761020f565b80636352211e1461054757806370a0823114610584578063715018a6146105c15780637f00c7a6146105d85761020f565b80632f745c591161019b57806344a0d68a1161016a57806344a0d68a146104625780634f6ccce71461048b57806351830227146104c857806355f804b3146104f35780635c975abb1461051c5761020f565b80632f745c59146103b55780633ccfd60b146103f257806342842e0e146103fc578063438b6300146104255761020f565b8063095ea7b3116101e2578063095ea7b3146102e257806313faede61461030b57806318160ddd14610336578063239c70ae1461036157806323b872dd1461038c5761020f565b806301ffc9a71461021457806302329a291461025157806306fdde031461027a578063081812fc146102a5575b600080fd5b34801561022057600080fd5b5061023b600480360381019061023691906131b4565b610852565b6040516102489190613bc1565b60405180910390f35b34801561025d57600080fd5b506102786004803603810190610273919061318b565b6108cc565b005b34801561028657600080fd5b5061028f610965565b60405161029c9190613bdc565b60405180910390f35b3480156102b157600080fd5b506102cc60048036038101906102c79190613247565b6109f7565b6040516102d99190613b38565b60405180910390f35b3480156102ee57600080fd5b506103096004803603810190610304919061314f565b610a7c565b005b34801561031757600080fd5b50610320610b94565b60405161032d9190613e3e565b60405180910390f35b34801561034257600080fd5b5061034b610b9a565b6040516103589190613e3e565b60405180910390f35b34801561036d57600080fd5b50610376610ba7565b6040516103839190613e3e565b60405180910390f35b34801561039857600080fd5b506103b360048036038101906103ae9190613049565b610bad565b005b3480156103c157600080fd5b506103dc60048036038101906103d7919061314f565b610c0d565b6040516103e99190613e3e565b60405180910390f35b6103fa610cb2565b005b34801561040857600080fd5b50610423600480360381019061041e9190613049565b610dae565b005b34801561043157600080fd5b5061044c60048036038101906104479190612fe4565b610dce565b6040516104599190613b9f565b60405180910390f35b34801561046e57600080fd5b5061048960048036038101906104849190613247565b610ec8565b005b34801561049757600080fd5b506104b260048036038101906104ad9190613247565b610f4e565b6040516104bf9190613e3e565b60405180910390f35b3480156104d457600080fd5b506104dd610fe5565b6040516104ea9190613bc1565b60405180910390f35b3480156104ff57600080fd5b5061051a60048036038101906105159190613206565b610ff8565b005b34801561052857600080fd5b5061053161108e565b60405161053e9190613bc1565b60405180910390f35b34801561055357600080fd5b5061056e60048036038101906105699190613247565b6110a1565b60405161057b9190613b38565b60405180910390f35b34801561059057600080fd5b506105ab60048036038101906105a69190612fe4565b611153565b6040516105b89190613e3e565b60405180910390f35b3480156105cd57600080fd5b506105d661120b565b005b3480156105e457600080fd5b506105ff60048036038101906105fa9190613247565b611293565b005b34801561060d57600080fd5b50610616611319565b6040516106239190613b38565b60405180910390f35b34801561063857600080fd5b50610641611343565b60405161064e9190613bdc565b60405180910390f35b610671600480360381019061066c9190613247565b6113d5565b005b34801561067f57600080fd5b5061069a60048036038101906106959190613113565b6114c1565b005b3480156106a857600080fd5b506106b16114d7565b005b3480156106bf57600080fd5b506106da60048036038101906106d59190613206565b611570565b005b3480156106e857600080fd5b5061070360048036038101906106fe9190613098565b611606565b005b34801561071157600080fd5b5061071a611668565b6040516107279190613bdc565b60405180910390f35b34801561073c57600080fd5b506107456116f6565b6040516107529190613bdc565b60405180910390f35b34801561076757600080fd5b50610782600480360381019061077d9190613247565b611784565b60405161078f9190613bdc565b60405180910390f35b3480156107a457600080fd5b506107ad6118dd565b6040516107ba9190613e3e565b60405180910390f35b3480156107cf57600080fd5b506107ea60048036038101906107e59190613206565b6118e3565b005b3480156107f857600080fd5b50610813600480360381019061080e919061300d565b611979565b6040516108209190613bc1565b60405180910390f35b34801561083557600080fd5b50610850600480360381019061084b9190612fe4565b611a0d565b005b60007f780e9d63000000000000000000000000000000000000000000000000000000007bffffffffffffffffffffffffffffffffffffffffffffffffffffffff1916827bffffffffffffffffffffffffffffffffffffffffffffffffffffffff191614806108c557506108c482611b05565b5b9050919050565b6108d4611be7565b73ffffffffffffffffffffffffffffffffffffffff166108f2611319565b73ffffffffffffffffffffffffffffffffffffffff1614610948576040517f08c379a000000000000000000000000000000000000000000000000000000000815260040161093f90613d7e565b60405180910390fd5b80601060006101000a81548160ff02191690831515021790555050565b60606000805461097490614151565b80601f01602080910402602001604051908101604052809291908181526020018280546109a090614151565b80156109ed5780601f106109c2576101008083540402835291602001916109ed565b820191906000526020600020905b8154815290600101906020018083116109d057829003601f168201915b5050505050905090565b6000610a0282611bef565b610a41576040517f08c379a0000000000000000000000000000000000000000000000000000000008152600401610a3890613d5e565b60405180910390fd5b6004600083815260200190815260200160002060009054906101000a900473ffffffffffffffffffffffffffffffffffffffff169050919050565b6000610a87826110a1565b90508073ffffffffffffffffffffffffffffffffffffffff168373ffffffffffffffffffffffffffffffffffffffff161415610af8576040517f08c379a0000000000000000000000000000000000000000000000000000000008152600401610aef90613dde565b60405180910390fd5b8073ffffffffffffffffffffffffffffffffffffffff16610b17611be7565b73ffffffffffffffffffffffffffffffffffffffff161480610b465750610b4581610b40611be7565b611979565b5b610b85576040517f08c379a0000000000000000000000000000000000000000000000000000000008152600401610b7c90613cde565b60405180910390fd5b610b8f8383611c5b565b505050565b600d5481565b6000600880549050905090565b600f5481565b610bbe610bb8611be7565b82611d14565b610bfd576040517f08c379a0000000000000000000000000000000000000000000000000000000008152600401610bf490613dfe565b60405180910390fd5b610c08838383611df2565b505050565b6000610c1883611153565b8210610c59576040517f08c379a0000000000000000000000000000000000000000000000000000000008152600401610c5090613bfe565b60405180910390fd5b600660008473ffffffffffffffffffffffffffffffffffffffff1673ffffffffffffffffffffffffffffffffffffffff168152602001908152602001600020600083815260200190815260200160002054905092915050565b610cba611be7565b73ffffffffffffffffffffffffffffffffffffffff16610cd8611319565b73ffffffffffffffffffffffffffffffffffffffff1614610d2e576040517f08c379a0000000000000000000000000000000000000000000000000000000008152600401610d2590613d7e565b60405180910390fd5b6000610d38611319565b73ffffffffffffffffffffffffffffffffffffffff1647604051610d5b90613b23565b60006040518083038185875af1925050503d8060008114610d98576040519150601f19603f3d011682016040523d82523d6000602084013e610d9d565b606091505b5050905080610dab57600080fd5b50565b610dc983838360405180602001604052806000815250611606565b505050565b60606000610ddb83611153565b905060008167ffffffffffffffff811115610e1f577f4e487b7100000000000000000000000000000000000000000000000000000000600052604160045260246000fd5b604051908082528060200260200182016040528015610e4d5781602001602082028036833780820191505090505b50905060005b82811015610ebd57610e658582610c0d565b828281518110610e9e577f4e487b7100000000000000000000000000000000000000000000000000000000600052603260045260246000fd5b6020026020010181815250508080610eb590614183565b915050610e53565b508092505050919050565b610ed0611be7565b73ffffffffffffffffffffffffffffffffffffffff16610eee611319565b73ffffffffffffffffffffffffffffffffffffffff1614610f44576040517f08c379a0000000000000000000000000000000000000000000000000000000008152600401610f3b90613d7e565b60405180910390fd5b80600d8190555050565b6000610f58610b9a565b8210610f99576040517f08c379a0000000000000000000000000000000000000000000000000000000008152600401610f9090613e1e565b60405180910390fd5b60088281548110610fd3577f4e487b7100000000000000000000000000000000000000000000000000000000600052603260045260246000fd5b90600052602060002001549050919050565b601060019054906101000a900460ff1681565b611000611be7565b73ffffffffffffffffffffffffffffffffffffffff1661101e611319565b73ffffffffffffffffffffffffffffffffffffffff1614611074576040517f08c379a000000000000000000000000000000000000000000000000000000000815260040161106b90613d7e565b60405180910390fd5b80600b908051906020019061108a929190612e08565b5050565b601060009054906101000a900460ff1681565b6000806002600084815260200190815260200160002060009054906101000a900473ffffffffffffffffffffffffffffffffffffffff169050600073ffffffffffffffffffffffffffffffffffffffff168173ffffffffffffffffffffffffffffffffffffffff16141561114a576040517f08c379a000000000000000000000000000000000000000000000000000000000815260040161114190613d1e565b60405180910390fd5b80915050919050565b60008073ffffffffffffffffffffffffffffffffffffffff168273ffffffffffffffffffffffffffffffffffffffff1614156111c4576040517f08c379a00000000000000000000000000000000000000000000000000000000081526004016111bb90613cfe565b60405180910390fd5b600360008373ffffffffffffffffffffffffffffffffffffffff1673ffffffffffffffffffffffffffffffffffffffff168152602001908152602001600020549050919050565b611213611be7565b73ffffffffffffffffffffffffffffffffffffffff16611231611319565b73ffffffffffffffffffffffffffffffffffffffff1614611287576040517f08c379a000000000000000000000000000000000000000000000000000000000815260040161127e90613d7e565b60405180910390fd5b611291600061204e565b565b61129b611be7565b73ffffffffffffffffffffffffffffffffffffffff166112b9611319565b73ffffffffffffffffffffffffffffffffffffffff161461130f576040517f08c379a000000000000000000000000000000000000000000000000000000000815260040161130690613d7e565b60405180910390fd5b80600f8190555050565b6000600a60009054906101000a900473ffffffffffffffffffffffffffffffffffffffff16905090565b60606001805461135290614151565b80601f016020809104026020016040519081016040528092919081815260200182805461137e90614151565b80156113cb5780601f106113a0576101008083540402835291602001916113cb565b820191906000526020600020905b8154815290600101906020018083116113ae57829003601f168201915b5050505050905090565b60006113df610b9a565b9050601060009054906101000a900460ff16156113fb57600080fd5b6000821161140857600080fd5b600f5482111561141757600080fd5b600e5482826114269190613f86565b111561143157600080fd5b611439611319565b73ffffffffffffffffffffffffffffffffffffffff163373ffffffffffffffffffffffffffffffffffffffff16146114865781600d54611479919061400d565b34101561148557600080fd5b5b6000600190505b8281116114bc576114a93382846114a49190613f86565b612114565b80806114b490614183565b91505061148d565b505050565b6114d36114cc611be7565b8383612132565b5050565b6114df611be7565b73ffffffffffffffffffffffffffffffffffffffff166114fd611319565b73ffffffffffffffffffffffffffffffffffffffff1614611553576040517f08c379a000000000000000000000000000000000000000000000000000000000815260040161154a90613d7e565b60405180910390fd5b6001601060016101000a81548160ff021916908315150217905550565b611578611be7565b73ffffffffffffffffffffffffffffffffffffffff16611596611319565b73ffffffffffffffffffffffffffffffffffffffff16146115ec576040517f08c379a00000000000000000000000000000000000000000000000000000000081526004016115e390613d7e565b60405180910390fd5b8060119080519060200190611602929190612e08565b5050565b611617611611611be7565b83611d14565b611656576040517f08c379a000000000000000000000000000000000000000000000000000000000815260040161164d90613dfe565b60405180910390fd5b6116628484848461229f565b50505050565b600c805461167590614151565b80601f01602080910402602001604051908101604052809291908181526020018280546116a190614151565b80156116ee5780601f106116c3576101008083540402835291602001916116ee565b820191906000526020600020905b8154815290600101906020018083116116d157829003601f168201915b505050505081565b6011805461170390614151565b80601f016020809104026020016040519081016040528092919081815260200182805461172f90614151565b801561177c5780601f106117515761010080835404028352916020019161177c565b820191906000526020600020905b81548152906001019060200180831161175f57829003601f168201915b505050505081565b606061178f82611bef565b6117ce576040517f08c379a00000000000000000000000000000000000000000000000000000000081526004016117c590613dbe565b60405180910390fd5b60001515601060019054906101000a900460ff161515141561187c57601180546117f790614151565b80601f016020809104026020016040519081016040528092919081815260200182805461182390614151565b80156118705780601f1061184557610100808354040283529160200191611870565b820191906000526020600020905b81548152906001019060200180831161185357829003601f168201915b505050505090506118d8565b60006118866122fb565b905060008151116118a657604051806020016040528060008152506118d4565b806118b08461238d565b600c6040516020016118c493929190613af2565b6040516020818303038152906040525b9150505b919050565b600e5481565b6118eb611be7565b73ffffffffffffffffffffffffffffffffffffffff16611909611319565b73ffffffffffffffffffffffffffffffffffffffff161461195f576040517f08c379a000000000000000000000000000000000000000000000000000000000815260040161195690613d7e565b60405180910390fd5b80600c9080519060200190611975929190612e08565b5050565b6000600560008473ffffffffffffffffffffffffffffffffffffffff1673ffffffffffffffffffffffffffffffffffffffff16815260200190815260200160002060008373ffffffffffffffffffffffffffffffffffffffff1673ffffffffffffffffffffffffffffffffffffffff16815260200190815260200160002060009054906101000a900460ff16905092915050565b611a15611be7565b73ffffffffffffffffffffffffffffffffffffffff16611a33611319565b73ffffffffffffffffffffffffffffffffffffffff1614611a89576040517f08c379a0000000000000000000000000000000000000000000000000000000008152600401611a8090613d7e565b60405180910390fd5b600073ffffffffffffffffffffffffffffffffffffffff168173ffffffffffffffffffffffffffffffffffffffff161415611af9576040517f08c379a0000000000000000000000000000000000000000000000000000000008152600401611af090613c3e565b60405180910390fd5b611b028161204e565b50565b60007f80ac58cd000000000000000000000000000000000000000000000000000000007bffffffffffffffffffffffffffffffffffffffffffffffffffffffff1916827bffffffffffffffffffffffffffffffffffffffffffffffffffffffff19161480611bd057507f5b5e139f000000000000000000000000000000000000000000000000000000007bffffffffffffffffffffffffffffffffffffffffffffffffffffffff1916827bffffffffffffffffffffffffffffffffffffffffffffffffffffffff1916145b80611be05750611bdf8261253a565b5b9050919050565b600033905090565b60008073ffffffffffffffffffffffffffffffffffffffff166002600084815260200190815260200160002060009054906101000a900473ffffffffffffffffffffffffffffffffffffffff1673ffffffffffffffffffffffffffffffffffffffff1614159050919050565b816004600083815260200190815260200160002060006101000a81548173ffffffffffffffffffffffffffffffffffffffff021916908373ffffffffffffffffffffffffffffffffffffffff160217905550808273ffffffffffffffffffffffffffffffffffffffff16611cce836110a1565b73ffffffffffffffffffffffffffffffffffffffff167f8c5be1e5ebec7d5bd14f71427d1e84f3dd0314c0f7b2291e5b200ac8c7c3b92560405160405180910390a45050565b6000611d1f82611bef565b611d5e576040517f08c379a0000000000000000000000000000000000000000000000000000000008152600401611d5590613cbe565b60405180910390fd5b6000611d69836110a1565b90508073ffffffffffffffffffffffffffffffffffffffff168473ffffffffffffffffffffffffffffffffffffffff161480611dd857508373ffffffffffffffffffffffffffffffffffffffff16611dc0846109f7565b73ffffffffffffffffffffffffffffffffffffffff16145b80611de95750611de88185611979565b5b91505092915050565b8273ffffffffffffffffffffffffffffffffffffffff16611e12826110a1565b73ffffffffffffffffffffffffffffffffffffffff1614611e68576040517f08c379a0000000000000000000000000000000000000000000000000000000008152600401611e5f90613d9e565b60405180910390fd5b600073ffffffffffffffffffffffffffffffffffffffff168273ffffffffffffffffffffffffffffffffffffffff161415611ed8576040517f08c379a0000000000000000000000000000000000000000000000000000000008152600401611ecf90613c7e565b60405180910390fd5b611ee38383836125a4565b611eee600082611c5b565b6001600360008573ffffffffffffffffffffffffffffffffffffffff1673ffffffffffffffffffffffffffffffffffffffff1681526020019081526020016000206000828254611f3e9190614067565b925050819055506001600360008473ffffffffffffffffffffffffffffffffffffffff1673ffffffffffffffffffffffffffffffffffffffff1681526020019081526020016000206000828254611f959190613f86565b92505081905550816002600083815260200190815260200160002060006101000a81548173ffffffffffffffffffffffffffffffffffffffff021916908373ffffffffffffffffffffffffffffffffffffffff160217905550808273ffffffffffffffffffffffffffffffffffffffff168473ffffffffffffffffffffffffffffffffffffffff167fddf252ad1be2c89b69c2b068fc378daa952ba7f163c4a11628f55a4df523b3ef60405160405180910390a4505050565b6000600a60009054906101000a900473ffffffffffffffffffffffffffffffffffffffff16905081600a60006101000a81548173ffffffffffffffffffffffffffffffffffffffff021916908373ffffffffffffffffffffffffffffffffffffffff1602179055508173ffffffffffffffffffffffffffffffffffffffff168173ffffffffffffffffffffffffffffffffffffffff167f8be0079c531659141344cd1fd0a4f28419497f9722a3daafe3b4186f6b6457e060405160405180910390a35050565b61212e8282604051806020016040528060008152506126b8565b5050565b8173ffffffffffffffffffffffffffffffffffffffff168373ffffffffffffffffffffffffffffffffffffffff1614156121a1576040517f08c379a000000000000000000000000000000000000000000000000000000000815260040161219890613c9e565b60405180910390fd5b80600560008573ffffffffffffffffffffffffffffffffffffffff1673ffffffffffffffffffffffffffffffffffffffff16815260200190815260200160002060008473ffffffffffffffffffffffffffffffffffffffff1673ffffffffffffffffffffffffffffffffffffffff16815260200190815260200160002060006101000a81548160ff0219169083151502179055508173ffffffffffffffffffffffffffffffffffffffff168373ffffffffffffffffffffffffffffffffffffffff167f17307eab39ab6107e8899845ad3d59bd9653f200f220920489ca2b5937696c31836040516122929190613bc1565b60405180910390a3505050565b6122aa848484611df2565b6122b684848484612713565b6122f5576040517f08c379a00000000000000000000000000000000000000000000000000000000081526004016122ec90613c1e565b60405180910390fd5b50505050565b6060600b805461230a90614151565b80601f016020809104026020016040519081016040528092919081815260200182805461233690614151565b80156123835780601f1061235857610100808354040283529160200191612383565b820191906000526020600020905b81548152906001019060200180831161236657829003601f168201915b5050505050905090565b606060008214156123d5576040518060400160405280600181526020017f30000000000000000000000000000000000000000000000000000000000000008152509050612535565b600082905060005b600082146124075780806123f090614183565b915050600a826124009190613fdc565b91506123dd565b60008167ffffffffffffffff811115612449577f4e487b7100000000000000000000000000000000000000000000000000000000600052604160045260246000fd5b6040519080825280601f01601f19166020018201604052801561247b5781602001600182028036833780820191505090505b5090505b6000851461252e576001826124949190614067565b9150600a856124a391906141cc565b60306124af9190613f86565b60f81b8183815181106124eb577f4e487b7100000000000000000000000000000000000000000000000000000000600052603260045260246000fd5b60200101907effffffffffffffffffffffffffffffffffffffffffffffffffffffffffffff1916908160001a905350600a856125279190613fdc565b945061247f565b8093505050505b919050565b60007f01ffc9a7000000000000000000000000000000000000000000000000000000007bffffffffffffffffffffffffffffffffffffffffffffffffffffffff1916827bffffffffffffffffffffffffffffffffffffffffffffffffffffffff1916149050919050565b6125af8383836128aa565b600073ffffffffffffffffffffffffffffffffffffffff168373ffffffffffffffffffffffffffffffffffffffff1614156125f2576125ed816128af565b612631565b8173ffffffffffffffffffffffffffffffffffffffff168373ffffffffffffffffffffffffffffffffffffffff16146126305761262f83826128f8565b5b5b600073ffffffffffffffffffffffffffffffffffffffff168273ffffffffffffffffffffffffffffffffffffffff1614156126745761266f81612a65565b6126b3565b8273ffffffffffffffffffffffffffffffffffffffff168273ffffffffffffffffffffffffffffffffffffffff16146126b2576126b18282612ba8565b5b5b505050565b6126c28383612c27565b6126cf6000848484612713565b61270e576040517f08c379a000000000000000000000000000000000000000000000000000000000815260040161270590613c1e565b60405180910390fd5b505050565b60006127348473ffffffffffffffffffffffffffffffffffffffff16612df5565b1561289d578373ffffffffffffffffffffffffffffffffffffffff1663150b7a0261275d611be7565b8786866040518563ffffffff1660e01b815260040161277f9493929190613b53565b602060405180830381600087803b15801561279957600080fd5b505af19250505080156127ca57506040513d601f19601f820116820180604052508101906127c791906131dd565b60015b61284d573d80600081146127fa576040519150601f19603f3d011682016040523d82523d6000602084013e6127ff565b606091505b50600081511415612845576040517f08c379a000000000000000000000000000000000000000000000000000000000815260040161283c90613c1e565b60405180910390fd5b805181602001fd5b63150b7a0260e01b7bffffffffffffffffffffffffffffffffffffffffffffffffffffffff1916817bffffffffffffffffffffffffffffffffffffffffffffffffffffffff1916149150506128a2565b600190505b949350505050565b505050565b6008805490506009600083815260200190815260200160002081905550600881908060018154018082558091505060019003906000526020600020016000909190919091505550565b6000600161290584611153565b61290f9190614067565b90506000600760008481526020019081526020016000205490508181146129f4576000600660008673ffffffffffffffffffffffffffffffffffffffff1673ffffffffffffffffffffffffffffffffffffffff168152602001908152602001600020600084815260200190815260200160002054905080600660008773ffffffffffffffffffffffffffffffffffffffff1673ffffffffffffffffffffffffffffffffffffffff168152602001908152602001600020600084815260200190815260200160002081905550816007600083815260200190815260200160002081905550505b6007600084815260200190815260200160002060009055600660008573ffffffffffffffffffffffffffffffffffffffff1673ffffffffffffffffffffffffffffffffffffffff16815260200190815260200160002060008381526020019081526020016000206000905550505050565b60006001600880549050612a799190614067565b9050600060096000848152602001908152602001600020549050600060088381548110612acf577f4e487b7100000000000000000000000000000000000000000000000000000000600052603260045260246000fd5b906000526020600020015490508060088381548110612b17577f4e487b7100000000000000000000000000000000000000000000000000000000600052603260045260246000fd5b906000526020600020018190555081600960008381526020019081526020016000208190555060096000858152602001908152602001600020600090556008805480612b8c577f4e487b7100000000000000000000000000000000000000000000000000000000600052603160045260246000fd5b6001900381819060005260206000200160009055905550505050565b6000612bb383611153565b905081600660008573ffffffffffffffffffffffffffffffffffffffff1673ffffffffffffffffffffffffffffffffffffffff168152602001908152602001600020600083815260200190815260200160002081905550806007600084815260200190815260200160002081905550505050565b600073ffffffffffffffffffffffffffffffffffffffff168273ffffffffffffffffffffffffffffffffffffffff161415612c97576040517f08c379a0000000000000000000000000000000000000000000000000000000008152600401612c8e90613d3e565b60405180910390fd5b612ca081611bef565b15612ce0576040517f08c379a0000000000000000000000000000000000000000000000000000000008152600401612cd790613c5e565b60405180910390fd5b612cec600083836125a4565b6001600360008473ffffffffffffffffffffffffffffffffffffffff1673ffffffffffffffffffffffffffffffffffffffff1681526020019081526020016000206000828254612d3c9190613f86565b92505081905550816002600083815260200190815260200160002060006101000a81548173ffffffffffffffffffffffffffffffffffffffff021916908373ffffffffffffffffffffffffffffffffffffffff160217905550808273ffffffffffffffffffffffffffffffffffffffff16600073ffffffffffffffffffffffffffffffffffffffff167fddf252ad1be2c89b69c2b068fc378daa952ba7f163c4a11628f55a4df523b3ef60405160405180910390a45050565b600080823b905060008111915050919050565b828054612e1490614151565b90600052602060002090601f016020900481019282612e365760008555612e7d565b82601f10612e4f57805160ff1916838001178555612e7d565b82800160010185558215612e7d579182015b82811115612e7c578251825591602001919060010190612e61565b5b509050612e8a9190612e8e565b5090565b5b80821115612ea7576000816000905550600101612e8f565b5090565b6000612ebe612eb984613e8a565b613e59565b905082815260208101848484011115612ed657600080fd5b612ee184828561410f565b509392505050565b6000612efc612ef784613eba565b613e59565b905082815260208101848484011115612f1457600080fd5b612f1f84828561410f565b509392505050565b600081359050612f36816142ca565b92915050565b600081359050612f4b816142e1565b92915050565b600081359050612f60816142f8565b92915050565b600081519050612f75816142f8565b92915050565b600082601f830112612f8c57600080fd5b8135612f9c848260208601612eab565b91505092915050565b600082601f830112612fb657600080fd5b8135612fc6848260208601612ee9565b91505092915050565b600081359050612fde8161430f565b92915050565b600060208284031215612ff657600080fd5b600061300484828501612f27565b91505092915050565b6000806040838503121561302057600080fd5b600061302e85828601612f27565b925050602061303f85828601612f27565b9150509250929050565b60008060006060848603121561305e57600080fd5b600061306c86828701612f27565b935050602061307d86828701612f27565b925050604061308e86828701612fcf565b9150509250925092565b600080600080608085870312156130ae57600080fd5b60006130bc87828801612f27565b94505060206130cd87828801612f27565b93505060406130de87828801612fcf565b925050606085013567ffffffffffffffff8111156130fb57600080fd5b61310787828801612f7b565b91505092959194509250565b6000806040838503121561312657600080fd5b600061313485828601612f27565b925050602061314585828601612f3c565b9150509250929050565b6000806040838503121561316257600080fd5b600061317085828601612f27565b925050602061318185828601612fcf565b9150509250929050565b60006020828403121561319d57600080fd5b60006131ab84828501612f3c565b91505092915050565b6000602082840312156131c657600080fd5b60006131d484828501612f51565b91505092915050565b6000602082840312156131ef57600080fd5b60006131fd84828501612f66565b91505092915050565b60006020828403121561321857600080fd5b600082013567ffffffffffffffff81111561323257600080fd5b61323e84828501612fa5565b91505092915050565b60006020828403121561325957600080fd5b600061326784828501612fcf565b91505092915050565b600061327c8383613ad4565b60208301905092915050565b6132918161409b565b82525050565b60006132a282613f0f565b6132ac8185613f3d565b93506132b783613eea565b8060005b838110156132e85781516132cf8882613270565b97506132da83613f30565b9250506001810190506132bb565b5085935050505092915050565b6132fe816140ad565b82525050565b600061330f82613f1a565b6133198185613f4e565b935061332981856020860161411e565b613332816142b9565b840191505092915050565b600061334882613f25565b6133528185613f6a565b935061336281856020860161411e565b61336b816142b9565b840191505092915050565b600061338182613f25565b61338b8185613f7b565b935061339b81856020860161411e565b80840191505092915050565b600081546133b481614151565b6133be8186613f7b565b945060018216600081146133d957600181146133ea5761341d565b60ff1983168652818601935061341d565b6133f385613efa565b60005b83811015613415578154818901526001820191506020810190506133f6565b838801955050505b50505092915050565b6000613433602b83613f6a565b91507f455243373231456e756d657261626c653a206f776e657220696e646578206f7560008301527f74206f6620626f756e64730000000000000000000000000000000000000000006020830152604082019050919050565b6000613499603283613f6a565b91507f4552433732313a207472616e7366657220746f206e6f6e20455243373231526560008301527f63656976657220696d706c656d656e74657200000000000000000000000000006020830152604082019050919050565b60006134ff602683613f6a565b91507f4f776e61626c653a206e6577206f776e657220697320746865207a65726f206160008301527f64647265737300000000000000000000000000000000000000000000000000006020830152604082019050919050565b6000613565601c83613f6a565b91507f4552433732313a20746f6b656e20616c7265616479206d696e746564000000006000830152602082019050919050565b60006135a5602483613f6a565b91507f4552433732313a207472616e7366657220746f20746865207a65726f2061646460008301527f72657373000000000000000000000000000000000000000000000000000000006020830152604082019050919050565b600061360b601983613f6a565b91507f4552433732313a20617070726f766520746f2063616c6c6572000000000000006000830152602082019050919050565b600061364b602c83613f6a565b91507f4552433732313a206f70657261746f7220717565727920666f72206e6f6e657860008301527f697374656e7420746f6b656e00000000000000000000000000000000000000006020830152604082019050919050565b60006136b1603883613f6a565b91507f4552433732313a20617070726f76652063616c6c6572206973206e6f74206f7760008301527f6e6572206e6f7220617070726f76656420666f7220616c6c00000000000000006020830152604082019050919050565b6000613717602a83613f6a565b91507f4552433732313a2062616c616e636520717565727920666f7220746865207a6560008301527f726f2061646472657373000000000000000000000000000000000000000000006020830152604082019050919050565b600061377d602983613f6a565b91507f4552433732313a206f776e657220717565727920666f72206e6f6e657869737460008301527f656e7420746f6b656e00000000000000000000000000000000000000000000006020830152604082019050919050565b60006137e3602083613f6a565b91507f4552433732313a206d696e7420746f20746865207a65726f20616464726573736000830152602082019050919050565b6000613823602c83613f6a565b91507f4552433732313a20617070726f76656420717565727920666f72206e6f6e657860008301527f697374656e7420746f6b656e00000000000000000000000000000000000000006020830152604082019050919050565b6000613889602083613f6a565b91507f4f776e61626c653a2063616c6c6572206973206e6f7420746865206f776e65726000830152602082019050919050565b60006138c9602983613f6a565b91507f4552433732313a207472616e73666572206f6620746f6b656e2074686174206960008301527f73206e6f74206f776e00000000000000000000000000000000000000000000006020830152604082019050919050565b600061392f602f83613f6a565b91507f4552433732314d657461646174613a2055524920717565727920666f72206e6f60008301527f6e6578697374656e7420746f6b656e00000000000000000000000000000000006020830152604082019050919050565b6000613995602183613f6a565b91507f4552433732313a20617070726f76616c20746f2063757272656e74206f776e6560008301527f72000000000000000000000000000000000000000000000000000000000000006020830152604082019050919050565b60006139fb600083613f5f565b9150600082019050919050565b6000613a15603183613f6a565b91507f4552433732313a207472616e736665722063616c6c6572206973206e6f74206f60008301527f776e6572206e6f7220617070726f7665640000000000000000000000000000006020830152604082019050919050565b6000613a7b602c83613f6a565b91507f455243373231456e756d657261626c653a20676c6f62616c20696e646578206f60008301527f7574206f6620626f756e647300000000000000000000000000000000000000006020830152604082019050919050565b613add81614105565b82525050565b613aec81614105565b82525050565b6000613afe8286613376565b9150613b0a8285613376565b9150613b1682846133a7565b9150819050949350505050565b6000613b2e826139ee565b9150819050919050565b6000602082019050613b4d6000830184613288565b92915050565b6000608082019050613b686000830187613288565b613b756020830186613288565b613b826040830185613ae3565b8181036060830152613b948184613304565b905095945050505050565b60006020820190508181036000830152613bb98184613297565b905092915050565b6000602082019050613bd660008301846132f5565b92915050565b60006020820190508181036000830152613bf6818461333d565b905092915050565b60006020820190508181036000830152613c1781613426565b9050919050565b60006020820190508181036000830152613c378161348c565b9050919050565b60006020820190508181036000830152613c57816134f2565b9050919050565b60006020820190508181036000830152613c7781613558565b9050919050565b60006020820190508181036000830152613c9781613598565b9050919050565b60006020820190508181036000830152613cb7816135fe565b9050919050565b60006020820190508181036000830152613cd78161363e565b9050919050565b60006020820190508181036000830152613cf7816136a4565b9050919050565b60006020820190508181036000830152613d178161370a565b9050919050565b60006020820190508181036000830152613d3781613770565b9050919050565b60006020820190508181036000830152613d57816137d6565b9050919050565b60006020820190508181036000830152613d7781613816565b9050919050565b60006020820190508181036000830152613d978161387c565b9050919050565b60006020820190508181036000830152613db7816138bc565b9050919050565b60006020820190508181036000830152613dd781613922565b9050919050565b60006020820190508181036000830152613df781613988565b9050919050565b60006020820190508181036000830152613e1781613a08565b9050919050565b60006020820190508181036000830152613e3781613a6e565b9050919050565b6000602082019050613e536000830184613ae3565b92915050565b6000604051905081810181811067ffffffffffffffff82111715613e8057613e7f61428a565b5b8060405250919050565b600067ffffffffffffffff821115613ea557613ea461428a565b5b601f19601f8301169050602081019050919050565b600067ffffffffffffffff821115613ed557613ed461428a565b5b601f19601f8301169050602081019050919050565b6000819050602082019050919050565b60008190508160005260206000209050919050565b600081519050919050565b600081519050919050565b600081519050919050565b6000602082019050919050565b600082825260208201905092915050565b600082825260208201905092915050565b600081905092915050565b600082825260208201905092915050565b600081905092915050565b6000613f9182614105565b9150613f9c83614105565b9250827fffffffffffffffffffffffffffffffffffffffffffffffffffffffffffffffff03821115613fd157613fd06141fd565b5b828201905092915050565b6000613fe782614105565b9150613ff283614105565b9250826140025761400161422c565b5b828204905092915050565b600061401882614105565b915061402383614105565b9250817fffffffffffffffffffffffffffffffffffffffffffffffffffffffffffffffff048311821515161561405c5761405b6141fd565b5b828202905092915050565b600061407282614105565b915061407d83614105565b9250828210156140905761408f6141fd565b5b828203905092915050565b60006140a6826140e5565b9050919050565b60008115159050919050565b60007fffffffff0000000000000000000000000000000000000000000000000000000082169050919050565b600073ffffffffffffffffffffffffffffffffffffffff82169050919050565b6000819050919050565b82818337600083830152505050565b60005b8381101561413c578082015181840152602081019050614121565b8381111561414b576000848401525b50505050565b6000600282049050600182168061416957607f821691505b6020821081141561417d5761417c61425b565b5b50919050565b600061418e82614105565b91507fffffffffffffffffffffffffffffffffffffffffffffffffffffffffffffffff8214156141c1576141c06141fd565b5b600182019050919050565b60006141d782614105565b91506141e283614105565b9250826141f2576141f161422c565b5b828206905092915050565b7f4e487b7100000000000000000000000000000000000000000000000000000000600052601160045260246000fd5b7f4e487b7100000000000000000000000000000000000000000000000000000000600052601260045260246000fd5b7f4e487b7100000000000000000000000000000000000000000000000000000000600052602260045260246000fd5b7f4e487b7100000000000000000000000000000000000000000000000000000000600052604160045260246000fd5b6000601f19601f8301169050919050565b6142d38161409b565b81146142de57600080fd5b50565b6142ea816140ad565b81146142f557600080fd5b50565b614301816140b9565b811461430c57600080fd5b50565b61431881614105565b811461432357600080fd5b5056fea26469706673582212207d51a051486d44bf2d7c8c0cf8f4f8b67a7a433d63ebb841ced1e0f303fbec6e64736f6c63430008000033",
  "linkReferences": {},
  "deployedLinkReferences": {}
}